:020000040000FA
:1000000061EC00F051EC00F068EC00F071EC00F0F5
:1000100035EC00F0170E9AEC00F07DEC00F0F6D70E
:1000200010EF00F0EDD70A0E636F2EEC00F0646F56
:10003000380E8A6E896A64B1898664B3898864B52A
:1000400089848A7A1E0E9AEC00F0632FFAD7380E54
:100050008A6E8986898889848A96120081B0010C0B
:1000600081B2020C81B4040CF9D7896A380E8A6E09
:100070008986898889848A961200898200008992FB
:1000800012008A6E89903DEC00F0020E9AEC00F0AE
:1000900012008A6E89803DEC00F0020E9AEC00F0AE
:1000A0001200020E9AEC00F0000EF66E020EF76ED1
:1000B000000EF86E0900F550D8B4120041EC00F0C3
:1000C000F9D70F0EC16E926A896A936A8A6A120022
:1000D000060EF66E020EF76E000EF86E89EC00F05A
:1000E0001200940E41EC00F01C0EF66E020EF76E3C
:1000F000000EF86E89EC00F01200940E41EC00F056
:10010000320EF66E020EF76E000EF86E89EC00F0FD
:1001100012000900F550D8B4120049EC00F0F9D7EC
:10012000540E616F260E606F0000602FFED7612FA6
:10013000F9D71200626F90EC00F0622FFCD712002A
:020140000000BD
:10020000380C0180000020202020202057454C433E
:100210004F4D45212020202020200000504C4541FA
:10022000534520494E53455254204120434F494E97
:1002300000002020202020202020202020202020FE
:1002400020202020202000004A554C49414E2053B8
:10025000414E544F5320534120202020000047524C
:10026000414349415320504F52205554494C495A1B
:100270004152204E55455354524F205345525649F2
:0602800043494F0000009D
:020000040030CA
:0100000000FF
:0100010000FE
:0100020019E4
:010003001EDE
:01000500807A
:010006008079
:010008000FE8
:01000900C036
:01000A000FE6
:01000B00E014
:01000C000FE4
:01000D0040B2
:00000001FF
