:020000040000FA
:0400000006EF00F017
:020004000000FA
:08000800F1EF01F08FEC01F0B3
:100010007FEC01F0E8EC01F0A6EC01F05CEC01F003
:10002000696B656BB2EC01F0500E3EEC02F0BEEC79
:1000300001F0F8D76969CAEC01F02AEC00F03FEC56
:1000400000F075EC00F06B516C5163EC01F0FAECD0
:1000500000F01200666B676B686B6551666F630E2C
:10006000666501D008D0090E6665120000D00A0E40
:10007000665F672BF8D7640E665F672BF0D7800E3C
:100080006FEC01F06A6B200E77EC01F0200E77EC3C
:1000900001F0200E77EC01F0200E77EC01F0240E39
:1000A00077EC01F0686763EC00F067516725D8A42E
:1000B00069EC00F06FEC00F0300E77EC01F0300EE0
:1000C00077EC01F01200F3EC00F06851EBEC00F07B
:1000D0001200F3EC00F06751EBEC00F01200F3ECCF
:1000E00000F06651EBEC00F01200C00E6FEC01F076
:1000F0006B6B6C6B050E6503F4B4DCEC00F0F4B2D2
:10010000E1EC00F0F4B0E6EC00F0F3506B27D8B06F
:10011000E1EC00F03B0E6B614BD0C0EC00F0C8ECA2
:1001200000F06D516E516F517051A4EC00F0ABECCA
:1001300000F0200E77EC01F0B2EC00F0B9EC00F02A
:10014000200E77EC01F01200F3EC00F070517067B4
:10015000EBEC00F01200F3EC00F06F516F67EBEC8A
:1001600000F01200F3EC00F06E516E67EBEC00F063
:100170001200F3EC00F06D516D67EBEC00F0120033
:100180006F6B706B6C516F6F090E6F6109D012004D
:100190006D6B6E6B6B516D6F090E6D6105D012004A
:1001A0000A0E6F5F702BF0D70A0E6D5F6E2BF4D7BF
:1001B0003C0E6B5F6C2BAFD7110E6C6F040E6B6F28
:1001C0001200080E6C27200E6B271200040E6C27FD
:1001D000100E6B271200F626D8B0F72A0800F5504B
:1001E00077EC01F01200880EF66E050EF76E000E29
:1001F000F86E12000A0E636F22EC01F0646F380E85
:100200008A6E896A64B1898664B3898864B5898491
:100210008A7A1E0E3EEC02F0632FFAD736EC01F01C
:10022000C80E3EEC02F050EC01F0640E3EEC02F021
:100230001CEC02F0380E8A6E8986898889848A9639
:100240007169EAD66AAF0BD0936A2AEC00F03FECF2
:1002500000F075EC00F0000E936E63EC01F082BAD2
:10026000010C82B8020C82B2040CECD7010E6FECC8
:1002700001F0940E6FEC01F0740EF66E050EF76E41
:10028000000EF86EE1EC01F049EC01F077EC01F0C2
:10029000120064B1310C64B3320C64B5330C12003B
:1002A000940E6FEC01F0A80EF66E050EF76E000EC0
:1002B000F86EE1EC01F01200380E8A6E89868988AA
:1002C00089848A961200896A380E8A6E898689889E
:1002D00089848A98120089820000899212008A6EAD
:1002E00089906BEC01F0010E3EEC02F012008A6E78
:1002F00089806BEC01F0010E3EEC02F01200020E60
:100300003EEC02F0000EF66E050EF76E000EF86E73
:100310000900F550D8B412006FEC01F0F9D7D38C76
:10032000D38AD3986D966F860F0EC16E926A896AD2
:10033000936A8A6A360E946E8B6A7169B896240E37
:10034000AC6E190EAF6E949CAB8E1200800E6FECEB
:1003500001F0060EF66E050EF76E000EF86EE1EC7B
:1003600001F01200940E6FEC01F01C0EF66E050EFB
:10037000F76E000EF86EE1EC01F01200940E6FECD7
:1003800001F0320EF66E050EF76E000EF86EE1EC1F
:1003900001F01200940E6FEC01F0480EF66E050E9F
:1003A000F76E000EF86EE1EC01F0D40E6FEC01F088
:1003B0005E0EF66E050EF76E000EF86EE1EC01F0C3
:1003C00012000900F550D8B4120077EC01F0F9D70B
:1003D000040EBD6EB16A94849E949D84F28CF28E5C
:1003E0001200716717EC02F06A699E941C0E3EECD5
:1003F00002F09EA40FD09EB400D08B7C050E652722
:100400009E9469671100000EFF6E000EFE6E340EA2
:10041000FD6E11008B7C020E65279E9469671100AA
:10042000000EFF6E000EFE6E340EFD6E1100010E0A
:100430006FEC01F0716B1200F29E726B65C072F08E
:10044000729F729D64B1728D64B3728F64B5728F46
:1004500064B5728D1E0E736F72519EA8FED7AD6E7D
:10046000732FFAD7F28E1200540E616F260E606F52
:100470000000602FFED7612FF9D71200626F34ECB5
:0804800002F0622FFCD712000C
:10050000380C0180000020202020202057454C433B
:100510004F4D45212020202020200000504C4541F7
:10052000534520494E53455254204120434F494E94
:1005300000002020202020202020202020202020FB
:1005400020202020202000002020202043484F4F42
:1005500053452041205345415420202000002020B5
:100560002031202020202020322020202020203355
:1005700020200000444952494741534520414C2026
:1005800042414E434F3A0000303132333435363732
:1005900038396162636465666768696A6B6C6D6E41
:1005A0006F70717273740000202020202047524128
:0E05B00043494153202020202020202000001D
:020000040030CA
:0100000000FF
:010001000AF4
:0100020019E4
:010003001EDE
:01000500807A
:010006008079
:010008000FE8
:01000900C036
:01000A000FE6
:01000B00E014
:01000C000FE4
:01000D0040B2
:00000001FF
