:020000040000FA
:0400000006EF00F017
:020004000000FA
:0800080049EF01F0F5EC00F0F6
:10001000E5EC00F0FFEC00F03EEC01F0C2EC00F08B
:1000200008EC01F0500E73EC01F014EC01F0656780
:1000300002D0F6D7EBD720EC01F028EC00F034EC3E
:1000400000F0C9EC00F093EC00F0656B686B1200F7
:10005000676B666B6551676F090E6765120000D0AC
:100060000A0E675F662BF8D7696B8CEC00F0840E84
:10007000D5EC00F0240EDDEC00F0666779EC00F0C2
:100080008CEC00F080EC00F0300EDDEC00F0300E77
:10009000DDEC00F0200EDDEC00F0200EDDEC00F0D9
:1000A000200EDDEC00F0050E6503F3CF6AF06DEC79
:1000B00000F08CEC00F06C517AEC00F06B518CECA1
:1000C00000F081EC00F06D0EDDEC00F0690EDDEC6F
:1000D00000F06E0EDDEC00F012006B6B6C6B6AC012
:1000E0006BF0090E6B65120000D00A0E6B5F6C2B73
:1000F000F8D76651F626D8B0F72A87EC00F0120040
:100100006751F626D8B0F72A87EC00F012000800F5
:10011000F550DDEC00F012008A0EF66E030EF76E5D
:10012000000EF86E120068690A0E636FB0EC00F002
:10013000936A646F380E8A6E896A64B1898664B383
:10014000898864B589848A7A1E0E73EC01F0632F66
:10015000FAD7380E8A6E8986898889848A96120031
:1001600069AF09D0936A28EC00F034EC00F0070E78
:10017000936EC9EC00F081B0010C81B2020C81B425
:10018000040CEED7380E8A6E8986898889848A960F
:100190001200896A380E8A6E8986898889848A98CD
:1001A000120089820000899212008A6E8990D1EC37
:1001B00000F0010E73EC01F012008A6E8980D1EC20
:1001C00000F0010E73EC01F01200020E73EC01F06E
:1001D000000EF66E030EF76E000EF86E0900F55075
:1001E000D8B41200D5EC00F0F9D70F0EC16E926AA8
:1001F000896A936A8A6A040E946E8B6A1200060EEC
:10020000F66E030EF76E000EF86E37EC01F012007A
:10021000940ED5EC00F01C0EF66E030EF76E000E79
:10022000F86E37EC01F01200940ED5EC00F0320EAF
:10023000F66E030EF76E000EF86E37EC01F012004A
:10024000940ED5EC00F0480EF66E030EF76E000E1D
:10025000F86E37EC01F0D40ED5EC00F05E0EF66EC1
:10026000030EF76E000EF86E37EC01F01200090075
:10027000F550D8B41200DDEC00F0F9D7040EBD6ED5
:10028000B16A94849E949D84F28CF28E656B686B47
:1002900012006969936A190E73EC01F09E94190EAD
:1002A00073EC01F09EA40AD09EB400D08B7C050EA6
:1002B00065279E9468B366EC01F011008B7C020EFA
:1002C00065279E9468B366EC01F01100070E936EEB
:1002D0001200540E616F260E606F0000602FFED773
:1002E000612FF9D71200626F69EC01F0622FFCD721
:0202F0001200FA
:10030000380C0180000020202020202057454C433D
:100310004F4D45212020202020200000504C4541F9
:10032000534520494E53455254204120434F494E96
:1003300000002020202020202020202020202020FD
:1003400020202020202000002020202043484F4F44
:1003500053452041205345415420202000002020B7
:100360002031202020202020322020202020203357
:1003700020200000205448414E4B532020202020B4
:10038000202020202020202000003031323334353E
:04039000363738398B
:020000040030CA
:0100000000FF
:0100010000FE
:0100020019E4
:010003001EDE
:01000500807A
:010006008079
:010008000FE8
:01000900C036
:01000A000FE6
:01000B00E014
:01000C000FE4
:01000D0040B2
:00000001FF
