:020000040000FA
:1000000027EC00F005EC00F0FBD70A0E636F20EC44
:1000100000F0646F380E8A6E896A64B1898664B3B1
:10002000898864B589848A7A1E0E3EEC00F0632FBD
:10003000FAD7380E8A6E8986898889848A96120052
:1000400081B0010C81B2020C81B4040CF9D70F0EFF
:10005000C16E070E936E926A896A380E8A6E89861F
:10006000898889848A961200540E616F260E606F0B
:100070000000602FFED7612FF9D71200626F34ECB9
:0800800000F0622FFCD7120012
:02008800000076
:020000040030CA
:0100000000FF
:0100010000FE
:0100020019E4
:010003001EDE
:01000500807A
:010006008079
:010008000FE8
:01000900C036
:01000A000FE6
:01000B00E014
:01000C000FE4
:01000D0040B2
:00000001FF
