:020000040000FA
:0400000006EF00F017
:020004000000FA
:080008009EEF01F044EC01F051
:1000100034EC01F054EC01F093EC01F011EC01F040
:100020005DEC01F0500EE8EC01F069EC01F0656761
:1000300002D0F6D7EBD775EC01F028EC00F034ECE9
:1000400000F018EC01F0AFEC00F0656B686B12008B
:10005000676B666B6551676F090E6765120000D0AC
:100060000A0E675F662BF8D7696BA8EC00F0200ECC
:100070002CEC01F0200E2CEC01F0200E2CEC01F009
:10008000200E2CEC01F0240E2CEC01F0666795ECB0
:1000900000F0A8EC00F09CEC00F0300E2CEC01F02D
:1000A000300E2CEC01F0200E2CEC01F0200E2CEC8C
:1000B00001F0200E2CEC01F0050E6503F3CF6AF081
:1000C0007BEC00F0A8EC00F06D5196EC00F0A8EC91
:1000D00000F06C5196EC00F0A8EC00F06B519DEC38
:1000E00000F06D0E2CEC01F0690E2CEC01F06E0EA0
:1000F0002CEC01F012006D6B6B6B6C6B6AC06BF0DB
:1001000085EC00F089EC00F01200630E6B651200C4
:1001100004D0090E6B65120004D0640E6B5F6D2B6A
:10012000F4D70A0E6B5F6C2BF4D76651F626D8B065
:10013000F72AA3EC00F012006751F626D8B0F72A90
:10014000A3EC00F012000800F5502CEC01F01200B6
:10015000880EF66E050EF76E000EF86E12006869D6
:100160000A0E636FD9EC00F0936A646F380E8A6EE2
:10017000896A64B1898664B3898864B589848A7A16
:100180001E0EE8EC01F0632FFAD7EBEC00F0C80E7E
:10019000E8EC01F005EC01F0640EE8EC01F0BFECD6
:1001A00001F0380E8A6E8986898889848A966E69FC
:1001B000120069AF09D0936A28EC00F034EC00F02B
:1001C000000E936E18EC01F082BA010C82B8020C9A
:1001D00082B2040CEED7010E24EC01F0940E24EC54
:1001E00001F0740EF66E050EF76E000EF86E8CECD4
:1001F00001F0FEEC00F02CEC01F0120064B1310CC7
:1002000064B3320C64B5330C1200940E24EC01F08C
:10021000940EF66E050EF76E000EF86E8CEC01F083
:100220001200380E8A6E8986898889848A9612001F
:10023000896A380E8A6E8986898889848A9812002C
:1002400089820000899212008A6E899020EC01F068
:10025000010EE8EC01F012008A6E898020EC01F0BA
:10026000010EE8EC01F01200020EE8EC01F0000EC5
:10027000F66E050EF76E000EF86E0900F550D8B454
:10028000120024EC01F0F9D7D38CD38AD3986D9661
:100290006F860F0EC16E926A896A936A8A6A360EF9
:1002A000946E8B6A6E691200060EF66E050EF76E7E
:1002B000000EF86E8CEC01F01200940E24EC01F0AC
:1002C0001C0EF66E050EF76E000EF86E8CEC01F04B
:1002D0001200940E24EC01F0320EF66E050EF76E4D
:1002E000000EF86E8CEC01F01200940E24EC01F07C
:1002F000480EF66E050EF76E000EF86E8CEC01F0EF
:10030000D40E24EC01F05E0EF66E050EF76E000EB4
:10031000F86E8CEC01F012000900F550D8B4120010
:100320002CEC01F0F9D7040EBD6EB16A94849E9452
:100330009D84F28CF28E656B686B12006E67BAEC6E
:1003400001F06969936A190EE8EC01F09E94190EA8
:10035000E8EC01F09EA408D09EB400D08B7C050E82
:1003600065279E94688311008B7C020E65279E94FE
:1003700068831100010E24EC01F06E6B1200F29EF6
:10038000B896240EAC6E190EAF6E949CAB8E6F6B4C
:1003900065C06FF06F9F6F9D64B16F8D64B36F8F99
:1003A00064B56F8F64B56F8D1E0E706F6F519EA810
:1003B000FED7AD6E702FFAD7F28E1200540E616F19
:1003C000260E606F0000602FFED7612FF9D7120054
:0C03D000626FDEEC01F0622FFCD712001F
:10050000380C0180000020202020202057454C433B
:100510004F4D45212020202020200000504C4541F7
:10052000534520494E53455254204120434F494E94
:1005300000002020202020202020202020202020FB
:1005400020202020202000002020202043484F4F42
:1005500053452041205345415420202000002020B5
:100560002031202020202020322020202020203355
:1005700020200000444952494741534520414C2026
:1005800042414E434F3A0000303132333435363732
:100590003839000020202020204752414349415350
:0A05A0002020202020202020000051
:020000040030CA
:0100000000FF
:010001000AF4
:0100020019E4
:010003001EDE
:01000500807A
:010006008079
:010008000FE8
:01000900C036
:01000A000FE6
:01000B00E014
:01000C000FE4
:01000D0040B2
:00000001FF
