:020000040000FA
:0400000006EF00F017
:020004000000FA
:0800080079EF01F025EC01F095
:1000100015EC01F02FEC01F06EEC01F0F2EC00F0C9
:1000200038EC01F0500EA3EC01F044EC01F06567F0
:1000300002D0F6D7EBD750EC01F028EC00F034EC0E
:1000400000F0F9EC00F093EC00F0656B686B1200C7
:10005000676B666B6551676F090E6765120000D0AC
:100060000A0E675F662BF8D7696B8CEC00F0840E84
:1000700005EC01F0240E0DEC01F0666779EC00F060
:100080008CEC00F080EC00F0300E0DEC01F0300E46
:100090000DEC01F0200E0DEC01F0200E0DEC01F046
:1000A000200E0DEC01F0050E6503F3CF6AF06DEC48
:1000B00000F08CEC00F06C517AEC00F06B518CECA1
:1000C00000F081EC00F06D0E0DEC01F0690E0DEC0E
:1000D00001F06E0E0DEC01F012006B6B6C6B6AC0E0
:1000E0006BF0090E6B65120000D00A0E6B5F6C2B73
:1000F000F8D76651F626D8B0F72A87EC00F0120040
:100100006751F626D8B0F72A87EC00F012000800F5
:10011000F5500DEC01F01200880EF66E050EF76E2C
:10012000000EF86E120068690A0E636FBAEC00F0F8
:10013000936A646F380E8A6E896A64B1898664B383
:10014000898864B589848A7A1E0EA3EC01F0632F36
:10015000FAD7CCEC00F0640EA3EC01F0E6EC00F072
:10016000640EA3EC01F0380E8A6E89868988898432
:100170008A96120069AF09D0936A28EC00F034EC3B
:1001800000F0070E936EF9EC00F081B0010C81B223
:10019000020C81B4040CEED7010E05EC01F0940EB4
:1001A00005EC01F0740EF66E050EF76E000EF86E9B
:1001B00067EC01F0DFEC00F00DEC01F0120064B12F
:1001C000310C64B3320C64B5330C1200940E05ECA0
:1001D00001F0940EF66E050EF76E000EF86E67ECE9
:1001E00001F01200380E8A6E8986898889848A9681
:1001F0001200896A380E8A6E8986898889848A986D
:10020000120089820000899212008A6E899001ECA6
:1002100001F0010EA3EC01F012008A6E898001EC5E
:1002200001F0010EA3EC01F01200020EA3EC01F0AC
:10023000000EF66E050EF76E000EF86E0900F55012
:10024000D8B4120005EC01F0F9D70F0EC16E926A16
:10025000896A936A8A6A040E946E8B6A1200060E8B
:10026000F66E050EF76E000EF86E67EC01F01200E8
:10027000940E05EC01F01C0EF66E050EF76E000EE6
:10028000F86E67EC01F01200940E05EC01F0320EEE
:10029000F66E050EF76E000EF86E67EC01F01200B8
:1002A000940E05EC01F0480EF66E050EF76E000E8A
:1002B000F86E67EC01F0D40E05EC01F05E0EF66E00
:1002C000050EF76E000EF86E67EC01F012000900E3
:1002D000F550D8B412000DEC01F0F9D7040EBD6E44
:1002E000B16A94849E949D84F28CF28E656B686BE7
:1002F00012006969936A190EA3EC01F09E94190E1D
:10030000A3EC01F09EA40AD09EB400D08B7C050E15
:1003100065279E9468B396EC01F011008B7C020E69
:1003200065279E9468B396EC01F01100070E936E5A
:100330001200540E616F260E606F0000602FFED712
:10034000612FF9D71200626F99EC01F0622FFCD790
:02035000120099
:10050000380C0180000020202020202057454C433B
:100510004F4D45212020202020200000504C4541F7
:10052000534520494E53455254204120434F494E94
:1005300000002020202020202020202020202020FB
:1005400020202020202000002020202043484F4F42
:1005500053452041205345415420202000002020B5
:100560002031202020202020322020202020203355
:1005700020200000444952494741534520414C2026
:1005800042414E434F3A0000303132333435363732
:100590003839000020202020204752414349415350
:0A05A0002020202020202020000051
:020000040030CA
:0100000000FF
:0100010000FE
:0100020019E4
:010003001EDE
:01000500807A
:010006008079
:010008000FE8
:01000900C036
:01000A000FE6
:01000B00E014
:01000C000FE4
:01000D0040B2
:00000001FF
