:020000040000FA
:0400000006EF00F017
:020004000000FA
:080008001EEF01F0CAEC00F04C
:10001000BAEC00F0D4EC00F013EC01F097EC00F037
:10002000DDEC00F0500E48EC01F0E9EC00F0656703
:1000300002D0F6D7EBD7F5EC00F02AEC00F036EC66
:1000400000F09EEC00F068EC00F025EF00F0656B2E
:10005000686B1200676B666B6551676F090E6765A9
:10006000120000D00A0E675F662BF8D7696B8A0E04
:10007000F66E030EF76E000EF86E840EAAEC00F01A
:10008000240EB2EC00F0666755EC00F08A0EF66EB6
:10009000030EF76E000EF86E5CEC00F0300EB2EC62
:1000A00000F0300EB2EC00F012006651F626D8B027
:1000B000F72A63EC00F012006751F626D8B0F72A51
:1000C00063EC00F012000800F550B2EC00F01200F2
:1000D00068690A0E636F85EC00F0936A646F380EEE
:1000E0008A6E896A64B1898664B3898864B58984B3
:1000F0008A7A1E0E48EC01F0632FFAD7380E8A6E0A
:100100008986898889848A96120069AF09D0936AA2
:100110002AEC00F036EC00F0070E936E9EEC00F037
:1001200081B0010C81B2020C81B4040CEED7380E00
:100130008A6E8986898889848A961200896A380E2F
:100140008A6E8986898889848A981200898200004B
:10015000899212008A6E8990A6EC00F0010E48EC9C
:1001600001F012008A6E8980A6EC00F0010E48ECC6
:1001700001F01200020E48EC01F0000EF66E030EC4
:10018000F76E000EF86E0900F550D8B41200AAEC14
:1001900000F0F9D70F0EC16E926A896A936A8A6A73
:1001A000040E946E8B6A1200060EF66E030EF76E46
:1001B000000EF86E0CEC01F01200940EAAEC00F0A8
:1001C0001C0EF66E030EF76E000EF86E0CEC01F0CE
:1001D0001200940EAAEC00F0320EF66E030EF76ECB
:1001E000000EF86E0CEC01F01200940EAAEC00F078
:1001F000480EF66E030EF76E000EF86E0CEC01F072
:10020000D40EAAEC00F05E0EF66E030EF76E000E32
:10021000F86E0CEC01F012000900F550D8B4120091
:10022000B2EC00F0F9D7040EBD6EB16A94849E94CE
:100230009D84F28CF28E656B686B12006969936A1B
:10024000190E48EC01F09E94190E48EC01F09EA4A2
:100250000AD09EB400D08B7C050E65279E9468B3AF
:100260003BEC01F011008B7C020E65279E9468B375
:100270003BEC01F01100070E936E1200540E616FFB
:10028000260E606F0000602FFED7612FF9D7120095
:0C029000626F3EEC01F0622FFCD7120000
:10030000380C0180000020202020202057454C433D
:100310004F4D45212020202020200000504C4541F9
:10032000534520494E53455254204120434F494E96
:1003300000002020202020202020202020202020FD
:1003400020202020202000002020202043484F4F44
:1003500053452041205345415420202000002020B7
:100360002031202020202020322020202020203357
:1003700020200000205448414E4B532020202020B4
:10038000202020202020202000003031323334353E
:04039000363738398B
:020000040030CA
:0100000000FF
:0100010000FE
:0100020019E4
:010003001EDE
:01000500807A
:010006008079
:010008000FE8
:01000900C036
:01000A000FE6
:01000B00E014
:01000C000FE4
:01000D0040B2
:00000001FF
